{
  "address": "0x24972F3055F9473aa2bbb86DB2d34F809f9BB85c",
  "abi": [
    {
      "inputs": [
        {
          "internalType": "address",
          "name": "priceFeedAddress",
          "type": "address"
        }
      ],
      "stateMutability": "nonpayable",
      "type": "constructor"
    },
    {
      "inputs": [],
      "name": "fund",
      "outputs": [],
      "stateMutability": "payable",
      "type": "function"
    },
    {
      "inputs": [
        {
          "internalType": "uint256",
          "name": "",
          "type": "uint256"
        }
      ],
      "name": "funders",
      "outputs": [
        {
          "internalType": "address",
          "name": "",
          "type": "address"
        }
      ],
      "stateMutability": "view",
      "type": "function"
    },
    {
      "inputs": [],
      "name": "owner",
      "outputs": [
        {
          "internalType": "address",
          "name": "",
          "type": "address"
        }
      ],
      "stateMutability": "view",
      "type": "function"
    },
    {
      "inputs": [],
      "name": "priceFeed",
      "outputs": [
        {
          "internalType": "contract AggregatorV3Interface",
          "name": "",
          "type": "address"
        }
      ],
      "stateMutability": "view",
      "type": "function"
    },
    {
      "inputs": [],
      "name": "withdraw",
      "outputs": [],
      "stateMutability": "nonpayable",
      "type": "function"
    }
  ],
  "transactionHash": "0x18a91e434fb4f585da88434965254665edebcd0b533c5dbd9f8505d5aa58de2b",
  "args": [
    "0xD4a33860578De61DBAbDc8BFdb98FD742fA7028e"
  ],
  "numDeployments": 1,
  "solcInputHash": "fc81d04dc6d59ec1ab5be9335d5aa5e6",
  "bytecode": "0x60806040526802b5e3af16b188000060005534801561001d57600080fd5b50604051610ebd380380610ebd833981810160405281019061003f919061012a565b33600360006101000a81548173ffffffffffffffffffffffffffffffffffffffff021916908373ffffffffffffffffffffffffffffffffffffffff16021790555080600460006101000a81548173ffffffffffffffffffffffffffffffffffffffff021916908373ffffffffffffffffffffffffffffffffffffffff16021790555050610157565b600080fd5b600073ffffffffffffffffffffffffffffffffffffffff82169050919050565b60006100f7826100cc565b9050919050565b610107816100ec565b811461011257600080fd5b50565b600081519050610124816100fe565b92915050565b6000602082840312156101405761013f6100c7565b5b600061014e84828501610115565b91505092915050565b610d57806101666000396000f3fe60806040526004361061004a5760003560e01c80633ccfd60b1461004f578063741bef1a146100665780638da5cb5b14610091578063b60d4288146100bc578063dc0d3dff146100c6575b600080fd5b34801561005b57600080fd5b50610064610103565b005b34801561007257600080fd5b5061007b610349565b60405161008891906106f2565b60405180910390f35b34801561009d57600080fd5b506100a661036f565b6040516100b3919061072e565b60405180910390f35b6100c4610395565b005b3480156100d257600080fd5b506100ed60048036038101906100e89190610784565b6104b7565b6040516100fa919061072e565b60405180910390f35b3373ffffffffffffffffffffffffffffffffffffffff16600360009054906101000a900473ffffffffffffffffffffffffffffffffffffffff1673ffffffffffffffffffffffffffffffffffffffff1614610193576040517f08c379a000000000000000000000000000000000000000000000000000000000815260040161018a90610834565b60405180910390fd5b60005b60018054905081101561023957600060026000600184815481106101bd576101bc610854565b5b9060005260206000200160009054906101000a900473ffffffffffffffffffffffffffffffffffffffff1673ffffffffffffffffffffffffffffffffffffffff1673ffffffffffffffffffffffffffffffffffffffff168152602001908152602001600020819055508080610231906108b2565b915050610196565b50600067ffffffffffffffff811115610255576102546108fb565b5b6040519080825280602002602001820160405280156102835781602001602082028036833780820191505090505b50600190805190602001906102999291906105cc565b5060003373ffffffffffffffffffffffffffffffffffffffff16476040516102c09061095b565b60006040518083038185875af1925050503d80600081146102fd576040519150601f19603f3d011682016040523d82523d6000602084013e610302565b606091505b5050905080610346576040517f08c379a000000000000000000000000000000000000000000000000000000000815260040161033d906109bc565b60405180910390fd5b50565b600460009054906101000a900473ffffffffffffffffffffffffffffffffffffffff1681565b600360009054906101000a900473ffffffffffffffffffffffffffffffffffffffff1681565b6000546103cd600460009054906101000a900473ffffffffffffffffffffffffffffffffffffffff16346104f690919063ffffffff16565b101561040e576040517f08c379a000000000000000000000000000000000000000000000000000000000815260040161040590610a28565b60405180910390fd5b6001339080600181540180825580915050600190039060005260206000200160009091909190916101000a81548173ffffffffffffffffffffffffffffffffffffffff021916908373ffffffffffffffffffffffffffffffffffffffff16021790555034600260003373ffffffffffffffffffffffffffffffffffffffff1673ffffffffffffffffffffffffffffffffffffffff16815260200190815260200160002081905550565b600181815481106104c757600080fd5b906000526020600020016000915054906101000a900473ffffffffffffffffffffffffffffffffffffffff1681565b6000806105028361052c565b9050670de0b6b3a764000081856105199190610a48565b6105239190610ad1565b91505092915050565b6000808273ffffffffffffffffffffffffffffffffffffffff1663feaf968c6040518163ffffffff1660e01b815260040160a06040518083038186803b15801561057557600080fd5b505afa158015610589573d6000803e3d6000fd5b505050506040513d601f19601f820116820180604052508101906105ad9190610b8f565b5050509150506402540be400816105c49190610c0a565b915050919050565b828054828255906000526020600020908101928215610645579160200282015b828111156106445782518260006101000a81548173ffffffffffffffffffffffffffffffffffffffff021916908373ffffffffffffffffffffffffffffffffffffffff160217905550916020019190600101906105ec565b5b5090506106529190610656565b5090565b5b8082111561066f576000816000905550600101610657565b5090565b600073ffffffffffffffffffffffffffffffffffffffff82169050919050565b6000819050919050565b60006106b86106b36106ae84610673565b610693565b610673565b9050919050565b60006106ca8261069d565b9050919050565b60006106dc826106bf565b9050919050565b6106ec816106d1565b82525050565b600060208201905061070760008301846106e3565b92915050565b600061071882610673565b9050919050565b6107288161070d565b82525050565b6000602082019050610743600083018461071f565b92915050565b600080fd5b6000819050919050565b6107618161074e565b811461076c57600080fd5b50565b60008135905061077e81610758565b92915050565b60006020828403121561079a57610799610749565b5b60006107a88482850161076f565b91505092915050565b600082825260208201905092915050565b7f596f7520646f6e7420686176652061636365737320746f20746869732066756e60008201527f6374696f6e000000000000000000000000000000000000000000000000000000602082015250565b600061081e6025836107b1565b9150610829826107c2565b604082019050919050565b6000602082019050818103600083015261084d81610811565b9050919050565b7f4e487b7100000000000000000000000000000000000000000000000000000000600052603260045260246000fd5b7f4e487b7100000000000000000000000000000000000000000000000000000000600052601160045260246000fd5b60006108bd8261074e565b91507fffffffffffffffffffffffffffffffffffffffffffffffffffffffffffffffff8214156108f0576108ef610883565b5b600182019050919050565b7f4e487b7100000000000000000000000000000000000000000000000000000000600052604160045260246000fd5b600081905092915050565b50565b600061094560008361092a565b915061095082610935565b600082019050919050565b600061096682610938565b9150819050919050565b7f43616c6c206661696c6564000000000000000000000000000000000000000000600082015250565b60006109a6600b836107b1565b91506109b182610970565b602082019050919050565b600060208201905081810360008301526109d581610999565b9050919050565b7f4469646e27742073656e20656e6f756768206574680000000000000000000000600082015250565b6000610a126015836107b1565b9150610a1d826109dc565b602082019050919050565b60006020820190508181036000830152610a4181610a05565b9050919050565b6000610a538261074e565b9150610a5e8361074e565b9250817fffffffffffffffffffffffffffffffffffffffffffffffffffffffffffffffff0483118215151615610a9757610a96610883565b5b828202905092915050565b7f4e487b7100000000000000000000000000000000000000000000000000000000600052601260045260246000fd5b6000610adc8261074e565b9150610ae78361074e565b925082610af757610af6610aa2565b5b828204905092915050565b600069ffffffffffffffffffff82169050919050565b610b2181610b02565b8114610b2c57600080fd5b50565b600081519050610b3e81610b18565b92915050565b6000819050919050565b610b5781610b44565b8114610b6257600080fd5b50565b600081519050610b7481610b4e565b92915050565b600081519050610b8981610758565b92915050565b600080600080600060a08688031215610bab57610baa610749565b5b6000610bb988828901610b2f565b9550506020610bca88828901610b65565b9450506040610bdb88828901610b7a565b9350506060610bec88828901610b7a565b9250506080610bfd88828901610b2f565b9150509295509295909350565b6000610c1582610b44565b9150610c2083610b44565b9250827f7fffffffffffffffffffffffffffffffffffffffffffffffffffffffffffffff0482116000841360008413161615610c5f57610c5e610883565b5b817f80000000000000000000000000000000000000000000000000000000000000000583126000841260008413161615610c9c57610c9b610883565b5b827f80000000000000000000000000000000000000000000000000000000000000000582126000841360008412161615610cd957610cd8610883565b5b827f7fffffffffffffffffffffffffffffffffffffffffffffffffffffffffffffff0582126000841260008412161615610d1657610d15610883565b5b82820290509291505056fea26469706673582212200985ba42807cc59b553e1d26877d4f2f2aa9e14fda47138c783446df4de45dd064736f6c63430008080033",
  "devdoc": {
    "kind": "dev",
    "methods": {},
    "version": 1
  },
  "userdoc": {
    "kind": "user",
    "methods": {},
    "version": 1
  },
  "storageLayout": {
    "storage": [
      {
        "astId": 57,
        "contract": "contracts/FundMe.sol:FundMe",
        "label": "minUSD",
        "offset": 0,
        "slot": "0",
        "type": "t_uint256"
      },
      {
        "astId": 60,
        "contract": "contracts/FundMe.sol:FundMe",
        "label": "funders",
        "offset": 0,
        "slot": "1",
        "type": "t_array(t_address)dyn_storage"
      },
      {
        "astId": 64,
        "contract": "contracts/FundMe.sol:FundMe",
        "label": "addressToAmount",
        "offset": 0,
        "slot": "2",
        "type": "t_mapping(t_address,t_uint256)"
      },
      {
        "astId": 66,
        "contract": "contracts/FundMe.sol:FundMe",
        "label": "owner",
        "offset": 0,
        "slot": "3",
        "type": "t_address"
      },
      {
        "astId": 69,
        "contract": "contracts/FundMe.sol:FundMe",
        "label": "priceFeed",
        "offset": 0,
        "slot": "4",
        "type": "t_contract(AggregatorV3Interface)45"
      }
    ],
    "types": {
      "t_address": {
        "encoding": "inplace",
        "label": "address",
        "numberOfBytes": "20"
      },
      "t_array(t_address)dyn_storage": {
        "base": "t_address",
        "encoding": "dynamic_array",
        "label": "address[]",
        "numberOfBytes": "32"
      },
      "t_contract(AggregatorV3Interface)45": {
        "encoding": "inplace",
        "label": "contract AggregatorV3Interface",
        "numberOfBytes": "20"
      },
      "t_mapping(t_address,t_uint256)": {
        "encoding": "mapping",
        "key": "t_address",
        "label": "mapping(address => uint256)",
        "numberOfBytes": "32",
        "value": "t_uint256"
      },
      "t_uint256": {
        "encoding": "inplace",
        "label": "uint256",
        "numberOfBytes": "32"
      }
    }
  }
}